{
  "contractName": "BasicNFT",
  "abi": [
    {
      "inputs": [],
      "stateMutability": "nonpayable",
      "type": "constructor"
    },
    {
      "anonymous": false,
      "inputs": [
        {
          "indexed": true,
          "internalType": "address",
          "name": "owner",
          "type": "address"
        },
        {
          "indexed": true,
          "internalType": "address",
          "name": "approved",
          "type": "address"
        },
        {
          "indexed": true,
          "internalType": "uint256",
          "name": "tokenId",
          "type": "uint256"
        }
      ],
      "name": "Approval",
      "type": "event"
    },
    {
      "anonymous": false,
      "inputs": [
        {
          "indexed": true,
          "internalType": "address",
          "name": "owner",
          "type": "address"
        },
        {
          "indexed": true,
          "internalType": "address",
          "name": "operator",
          "type": "address"
        },
        {
          "indexed": false,
          "internalType": "bool",
          "name": "approved",
          "type": "bool"
        }
      ],
      "name": "ApprovalForAll",
      "type": "event"
    },
    {
      "anonymous": false,
      "inputs": [
        {
          "indexed": true,
          "internalType": "address",
          "name": "previousOwner",
          "type": "address"
        },
        {
          "indexed": true,
          "internalType": "address",
          "name": "newOwner",
          "type": "address"
        }
      ],
      "name": "OwnershipTransferred",
      "type": "event"
    },
    {
      "anonymous": false,
      "inputs": [
        {
          "indexed": true,
          "internalType": "address",
          "name": "from",
          "type": "address"
        },
        {
          "indexed": true,
          "internalType": "address",
          "name": "to",
          "type": "address"
        },
        {
          "indexed": true,
          "internalType": "uint256",
          "name": "tokenId",
          "type": "uint256"
        }
      ],
      "name": "Transfer",
      "type": "event"
    },
    {
      "inputs": [
        {
          "internalType": "address",
          "name": "to",
          "type": "address"
        },
        {
          "internalType": "uint256",
          "name": "tokenId",
          "type": "uint256"
        }
      ],
      "name": "approve",
      "outputs": [],
      "stateMutability": "nonpayable",
      "type": "function"
    },
    {
      "inputs": [
        {
          "internalType": "address",
          "name": "owner",
          "type": "address"
        }
      ],
      "name": "balanceOf",
      "outputs": [
        {
          "internalType": "uint256",
          "name": "",
          "type": "uint256"
        }
      ],
      "stateMutability": "view",
      "type": "function"
    },
    {
      "inputs": [
        {
          "internalType": "uint256",
          "name": "tokenId",
          "type": "uint256"
        }
      ],
      "name": "getApproved",
      "outputs": [
        {
          "internalType": "address",
          "name": "",
          "type": "address"
        }
      ],
      "stateMutability": "view",
      "type": "function"
    },
    {
      "inputs": [
        {
          "internalType": "address",
          "name": "owner",
          "type": "address"
        },
        {
          "internalType": "address",
          "name": "operator",
          "type": "address"
        }
      ],
      "name": "isApprovedForAll",
      "outputs": [
        {
          "internalType": "bool",
          "name": "",
          "type": "bool"
        }
      ],
      "stateMutability": "view",
      "type": "function"
    },
    {
      "inputs": [],
      "name": "name",
      "outputs": [
        {
          "internalType": "string",
          "name": "",
          "type": "string"
        }
      ],
      "stateMutability": "view",
      "type": "function"
    },
    {
      "inputs": [],
      "name": "owner",
      "outputs": [
        {
          "internalType": "address",
          "name": "",
          "type": "address"
        }
      ],
      "stateMutability": "view",
      "type": "function"
    },
    {
      "inputs": [
        {
          "internalType": "uint256",
          "name": "tokenId",
          "type": "uint256"
        }
      ],
      "name": "ownerOf",
      "outputs": [
        {
          "internalType": "address",
          "name": "",
          "type": "address"
        }
      ],
      "stateMutability": "view",
      "type": "function"
    },
    {
      "inputs": [],
      "name": "renounceOwnership",
      "outputs": [],
      "stateMutability": "nonpayable",
      "type": "function"
    },
    {
      "inputs": [
        {
          "internalType": "address",
          "name": "from",
          "type": "address"
        },
        {
          "internalType": "address",
          "name": "to",
          "type": "address"
        },
        {
          "internalType": "uint256",
          "name": "tokenId",
          "type": "uint256"
        }
      ],
      "name": "safeTransferFrom",
      "outputs": [],
      "stateMutability": "nonpayable",
      "type": "function"
    },
    {
      "inputs": [
        {
          "internalType": "address",
          "name": "from",
          "type": "address"
        },
        {
          "internalType": "address",
          "name": "to",
          "type": "address"
        },
        {
          "internalType": "uint256",
          "name": "tokenId",
          "type": "uint256"
        },
        {
          "internalType": "bytes",
          "name": "_data",
          "type": "bytes"
        }
      ],
      "name": "safeTransferFrom",
      "outputs": [],
      "stateMutability": "nonpayable",
      "type": "function"
    },
    {
      "inputs": [
        {
          "internalType": "address",
          "name": "operator",
          "type": "address"
        },
        {
          "internalType": "bool",
          "name": "approved",
          "type": "bool"
        }
      ],
      "name": "setApprovalForAll",
      "outputs": [],
      "stateMutability": "nonpayable",
      "type": "function"
    },
    {
      "inputs": [
        {
          "internalType": "bytes4",
          "name": "interfaceId",
          "type": "bytes4"
        }
      ],
      "name": "supportsInterface",
      "outputs": [
        {
          "internalType": "bool",
          "name": "",
          "type": "bool"
        }
      ],
      "stateMutability": "view",
      "type": "function"
    },
    {
      "inputs": [],
      "name": "symbol",
      "outputs": [
        {
          "internalType": "string",
          "name": "",
          "type": "string"
        }
      ],
      "stateMutability": "view",
      "type": "function"
    },
    {
      "inputs": [
        {
          "internalType": "uint256",
          "name": "tokenId",
          "type": "uint256"
        }
      ],
      "name": "tokenURI",
      "outputs": [
        {
          "internalType": "string",
          "name": "",
          "type": "string"
        }
      ],
      "stateMutability": "view",
      "type": "function"
    },
    {
      "inputs": [
        {
          "internalType": "address",
          "name": "from",
          "type": "address"
        },
        {
          "internalType": "address",
          "name": "to",
          "type": "address"
        },
        {
          "internalType": "uint256",
          "name": "tokenId",
          "type": "uint256"
        }
      ],
      "name": "transferFrom",
      "outputs": [],
      "stateMutability": "nonpayable",
      "type": "function"
    },
    {
      "inputs": [
        {
          "internalType": "address",
          "name": "newOwner",
          "type": "address"
        }
      ],
      "name": "transferOwnership",
      "outputs": [],
      "stateMutability": "nonpayable",
      "type": "function"
    },
    {
      "inputs": [
        {
          "internalType": "address",
          "name": "receiver",
          "type": "address"
        },
        {
          "internalType": "string",
          "name": "tokenURI",
          "type": "string"
        }
      ],
      "name": "createNFT",
      "outputs": [
        {
          "internalType": "uint256",
          "name": "",
          "type": "uint256"
        }
      ],
      "stateMutability": "nonpayable",
      "type": "function"
    }
  ],
  "bytecode": "0x60806040523480156200001157600080fd5b50604080518082018252600c81526b2a3432a7b9bab72934bb32b960a11b6020808301918252835180850190945260038452622a27a960e91b9084015281519192916200006191600091620000f0565b50805162000077906001906020840190620000f0565b505050620000946200008e6200009a60201b60201c565b6200009e565b620001d3565b3390565b600780546001600160a01b038381166001600160a01b0319831681179093556040519116919082907f8be0079c531659141344cd1fd0a4f28419497f9722a3daafe3b4186f6b6457e090600090a35050565b828054620000fe9062000196565b90600052602060002090601f0160209004810192826200012257600085556200016d565b82601f106200013d57805160ff19168380011785556200016d565b828001600101855582156200016d579182015b828111156200016d57825182559160200191906001019062000150565b506200017b9291506200017f565b5090565b5b808211156200017b576000815560010162000180565b600181811c90821680620001ab57607f821691505b60208210811415620001cd57634e487b7160e01b600052602260045260246000fd5b50919050565b61189e80620001e36000396000f3fe608060405234801561001057600080fd5b506004361061010b5760003560e01c8063715018a6116100a2578063a561403311610071578063a56140331461021b578063b88d4fde1461022e578063c87b56dd14610241578063e985e9c514610254578063f2fde38b1461029057600080fd5b8063715018a6146101e75780638da5cb5b146101ef57806395d89b4114610200578063a22cb4651461020857600080fd5b806323b872dd116100de57806323b872dd1461018d57806342842e0e146101a05780636352211e146101b357806370a08231146101c657600080fd5b806301ffc9a71461011057806306fdde0314610138578063081812fc1461014d578063095ea7b314610178575b600080fd5b61012361011e366004611301565b6102a3565b60405190151581526020015b60405180910390f35b6101406102f5565b60405161012f9190611376565b61016061015b366004611389565b610387565b6040516001600160a01b03909116815260200161012f565b61018b6101863660046113be565b610414565b005b61018b61019b3660046113e8565b61052a565b61018b6101ae3660046113e8565b61055b565b6101606101c1366004611389565b610576565b6101d96101d4366004611424565b6105ed565b60405190815260200161012f565b61018b610674565b6007546001600160a01b0316610160565b6101406106aa565b61018b61021636600461143f565b6106b9565b6101d9610229366004611507565b61077e565b61018b61023c366004611569565b6107e1565b61014061024f366004611389565b610819565b6101236102623660046115e5565b6001600160a01b03918216600090815260056020908152604080832093909416825291909152205460ff1690565b61018b61029e366004611424565b610990565b60006001600160e01b031982166380ac58cd60e01b14806102d457506001600160e01b03198216635b5e139f60e01b145b806102ef57506301ffc9a760e01b6001600160e01b03198316145b92915050565b60606000805461030490611618565b80601f016020809104026020016040519081016040528092919081815260200182805461033090611618565b801561037d5780601f106103525761010080835404028352916020019161037d565b820191906000526020600020905b81548152906001019060200180831161036057829003601f168201915b5050505050905090565b600061039282610a2b565b6103f85760405162461bcd60e51b815260206004820152602c60248201527f4552433732313a20617070726f76656420717565727920666f72206e6f6e657860448201526b34b9ba32b73a103a37b5b2b760a11b60648201526084015b60405180910390fd5b506000908152600460205260409020546001600160a01b031690565b600061041f82610576565b9050806001600160a01b0316836001600160a01b0316141561048d5760405162461bcd60e51b815260206004820152602160248201527f4552433732313a20617070726f76616c20746f2063757272656e74206f776e656044820152603960f91b60648201526084016103ef565b336001600160a01b03821614806104a957506104a98133610262565b61051b5760405162461bcd60e51b815260206004820152603860248201527f4552433732313a20617070726f76652063616c6c6572206973206e6f74206f7760448201527f6e6572206e6f7220617070726f76656420666f7220616c6c000000000000000060648201526084016103ef565b6105258383610a48565b505050565b6105343382610ab6565b6105505760405162461bcd60e51b81526004016103ef90611653565b610525838383610b9c565b610525838383604051806020016040528060008152506107e1565b6000818152600260205260408120546001600160a01b0316806102ef5760405162461bcd60e51b815260206004820152602960248201527f4552433732313a206f776e657220717565727920666f72206e6f6e657869737460448201526832b73a103a37b5b2b760b91b60648201526084016103ef565b60006001600160a01b0382166106585760405162461bcd60e51b815260206004820152602a60248201527f4552433732313a2062616c616e636520717565727920666f7220746865207a65604482015269726f206164647265737360b01b60648201526084016103ef565b506001600160a01b031660009081526003602052604090205490565b6007546001600160a01b0316331461069e5760405162461bcd60e51b81526004016103ef906116a4565b6106a86000610d3c565b565b60606001805461030490611618565b6001600160a01b0382163314156107125760405162461bcd60e51b815260206004820152601960248201527f4552433732313a20617070726f766520746f2063616c6c65720000000000000060448201526064016103ef565b3360008181526005602090815260408083206001600160a01b03871680855290835292819020805460ff191686151590811790915590519081529192917f17307eab39ab6107e8899845ad3d59bd9653f200f220920489ca2b5937696c31910160405180910390a35050565b6007546000906001600160a01b031633146107ab5760405162461bcd60e51b81526004016103ef906116a4565b6107b9600880546001019055565b60006107c460085490565b90506107d08482610d8e565b6107da8184610ec1565b9392505050565b6107eb3383610ab6565b6108075760405162461bcd60e51b81526004016103ef90611653565b61081384848484610f4c565b50505050565b606061082482610a2b565b61088a5760405162461bcd60e51b815260206004820152603160248201527f45524337323155524953746f726167653a2055524920717565727920666f72206044820152703737b732bc34b9ba32b73a103a37b5b2b760791b60648201526084016103ef565b600082815260066020526040812080546108a390611618565b80601f01602080910402602001604051908101604052809291908181526020018280546108cf90611618565b801561091c5780601f106108f15761010080835404028352916020019161091c565b820191906000526020600020905b8154815290600101906020018083116108ff57829003601f168201915b50505050509050600061093a60408051602081019091526000815290565b905080516000141561094d575092915050565b81511561097f5780826040516020016109679291906116d9565b60405160208183030381529060405292505050919050565b61098884610f7f565b949350505050565b6007546001600160a01b031633146109ba5760405162461bcd60e51b81526004016103ef906116a4565b6001600160a01b038116610a1f5760405162461bcd60e51b815260206004820152602660248201527f4f776e61626c653a206e6577206f776e657220697320746865207a65726f206160448201526564647265737360d01b60648201526084016103ef565b610a2881610d3c565b50565b6000908152600260205260409020546001600160a01b0316151590565b600081815260046020526040902080546001600160a01b0319166001600160a01b0384169081179091558190610a7d82610576565b6001600160a01b03167f8c5be1e5ebec7d5bd14f71427d1e84f3dd0314c0f7b2291e5b200ac8c7c3b92560405160405180910390a45050565b6000610ac182610a2b565b610b225760405162461bcd60e51b815260206004820152602c60248201527f4552433732313a206f70657261746f7220717565727920666f72206e6f6e657860448201526b34b9ba32b73a103a37b5b2b760a11b60648201526084016103ef565b6000610b2d83610576565b9050806001600160a01b0316846001600160a01b03161480610b685750836001600160a01b0316610b5d84610387565b6001600160a01b0316145b8061098857506001600160a01b0380821660009081526005602090815260408083209388168352929052205460ff16610988565b826001600160a01b0316610baf82610576565b6001600160a01b031614610c175760405162461bcd60e51b815260206004820152602960248201527f4552433732313a207472616e73666572206f6620746f6b656e2074686174206960448201526839903737ba1037bbb760b91b60648201526084016103ef565b6001600160a01b038216610c795760405162461bcd60e51b8152602060048201526024808201527f4552433732313a207472616e7366657220746f20746865207a65726f206164646044820152637265737360e01b60648201526084016103ef565b610c84600082610a48565b6001600160a01b0383166000908152600360205260408120805460019290610cad90849061171e565b90915550506001600160a01b0382166000908152600360205260408120805460019290610cdb908490611735565b909155505060008181526002602052604080822080546001600160a01b0319166001600160a01b0386811691821790925591518493918716917fddf252ad1be2c89b69c2b068fc378daa952ba7f163c4a11628f55a4df523b3ef91a4505050565b600780546001600160a01b038381166001600160a01b0319831681179093556040519116919082907f8be0079c531659141344cd1fd0a4f28419497f9722a3daafe3b4186f6b6457e090600090a35050565b6001600160a01b038216610de45760405162461bcd60e51b815260206004820181905260248201527f4552433732313a206d696e7420746f20746865207a65726f206164647265737360448201526064016103ef565b610ded81610a2b565b15610e3a5760405162461bcd60e51b815260206004820152601c60248201527f4552433732313a20746f6b656e20616c7265616479206d696e7465640000000060448201526064016103ef565b6001600160a01b0382166000908152600360205260408120805460019290610e63908490611735565b909155505060008181526002602052604080822080546001600160a01b0319166001600160a01b03861690811790915590518392907fddf252ad1be2c89b69c2b068fc378daa952ba7f163c4a11628f55a4df523b3ef908290a45050565b610eca82610a2b565b610f2d5760405162461bcd60e51b815260206004820152602e60248201527f45524337323155524953746f726167653a2055524920736574206f66206e6f6e60448201526d32bc34b9ba32b73a103a37b5b2b760911b60648201526084016103ef565b6000828152600660209081526040909120825161052592840190611252565b610f57848484610b9c565b610f6384848484611056565b6108135760405162461bcd60e51b81526004016103ef9061174d565b6060610f8a82610a2b565b610fee5760405162461bcd60e51b815260206004820152602f60248201527f4552433732314d657461646174613a2055524920717565727920666f72206e6f60448201526e3732bc34b9ba32b73a103a37b5b2b760891b60648201526084016103ef565b600061100560408051602081019091526000815290565b9050600081511161102557604051806020016040528060008152506107da565b8061102f84611154565b6040516020016110409291906116d9565b6040516020818303038152906040529392505050565b60006001600160a01b0384163b1561114957604051630a85bd0160e11b81526001600160a01b0385169063150b7a029061109a90339089908890889060040161179f565b6020604051808303816000875af19250505080156110d5575060408051601f3d908101601f191682019092526110d2918101906117dc565b60015b61112f573d808015611103576040519150601f19603f3d011682016040523d82523d6000602084013e611108565b606091505b5080516111275760405162461bcd60e51b81526004016103ef9061174d565b805181602001fd5b6001600160e01b031916630a85bd0160e11b149050610988565b506001949350505050565b6060816111785750506040805180820190915260018152600360fc1b602082015290565b8160005b81156111a2578061118c816117f9565b915061119b9050600a8361182a565b915061117c565b60008167ffffffffffffffff8111156111bd576111bd61147b565b6040519080825280601f01601f1916602001820160405280156111e7576020820181803683370190505b5090505b8415610988576111fc60018361171e565b9150611209600a8661183e565b611214906030611735565b60f81b81838151811061122957611229611852565b60200101906001600160f81b031916908160001a90535061124b600a8661182a565b94506111eb565b82805461125e90611618565b90600052602060002090601f01602090048101928261128057600085556112c6565b82601f1061129957805160ff19168380011785556112c6565b828001600101855582156112c6579182015b828111156112c65782518255916020019190600101906112ab565b506112d29291506112d6565b5090565b5b808211156112d257600081556001016112d7565b6001600160e01b031981168114610a2857600080fd5b60006020828403121561131357600080fd5b81356107da816112eb565b60005b83811015611339578181015183820152602001611321565b838111156108135750506000910152565b6000815180845261136281602086016020860161131e565b601f01601f19169290920160200192915050565b6020815260006107da602083018461134a565b60006020828403121561139b57600080fd5b5035919050565b80356001600160a01b03811681146113b957600080fd5b919050565b600080604083850312156113d157600080fd5b6113da836113a2565b946020939093013593505050565b6000806000606084860312156113fd57600080fd5b611406846113a2565b9250611414602085016113a2565b9150604084013590509250925092565b60006020828403121561143657600080fd5b6107da826113a2565b6000806040838503121561145257600080fd5b61145b836113a2565b91506020830135801515811461147057600080fd5b809150509250929050565b634e487b7160e01b600052604160045260246000fd5b600067ffffffffffffffff808411156114ac576114ac61147b565b604051601f8501601f19908116603f011681019082821181831017156114d4576114d461147b565b816040528093508581528686860111156114ed57600080fd5b858560208301376000602087830101525050509392505050565b6000806040838503121561151a57600080fd5b611523836113a2565b9150602083013567ffffffffffffffff81111561153f57600080fd5b8301601f8101851361155057600080fd5b61155f85823560208401611491565b9150509250929050565b6000806000806080858703121561157f57600080fd5b611588856113a2565b9350611596602086016113a2565b925060408501359150606085013567ffffffffffffffff8111156115b957600080fd5b8501601f810187136115ca57600080fd5b6115d987823560208401611491565b91505092959194509250565b600080604083850312156115f857600080fd5b611601836113a2565b915061160f602084016113a2565b90509250929050565b600181811c9082168061162c57607f821691505b6020821081141561164d57634e487b7160e01b600052602260045260246000fd5b50919050565b60208082526031908201527f4552433732313a207472616e736665722063616c6c6572206973206e6f74206f6040820152701ddb995c881b9bdc88185c1c1c9bdd9959607a1b606082015260800190565b6020808252818101527f4f776e61626c653a2063616c6c6572206973206e6f7420746865206f776e6572604082015260600190565b600083516116eb81846020880161131e565b8351908301906116ff81836020880161131e565b01949350505050565b634e487b7160e01b600052601160045260246000fd5b60008282101561173057611730611708565b500390565b6000821982111561174857611748611708565b500190565b60208082526032908201527f4552433732313a207472616e7366657220746f206e6f6e20455243373231526560408201527131b2b4bb32b91034b6b83632b6b2b73a32b960711b606082015260800190565b6001600160a01b03858116825284166020820152604081018390526080606082018190526000906117d29083018461134a565b9695505050505050565b6000602082840312156117ee57600080fd5b81516107da816112eb565b600060001982141561180d5761180d611708565b5060010190565b634e487b7160e01b600052601260045260246000fd5b60008261183957611839611814565b500490565b60008261184d5761184d611814565b500690565b634e487b7160e01b600052603260045260246000fdfea2646970667358221220882be8f393fa81d9e3322b49134a9c12eb72fbcff7f061aeecb8d4e4730e419064736f6c634300080a0033",
  "immutableReferences": {},
  "source": "//Contract based on https://docs.openzeppelin.com/contracts/3.x/erc721\r\n// SPDX-License-Identifier: MIT\r\npragma solidity ^0.8;\r\n\r\n// implements the ERC721 standard\r\nimport \"@openzeppelin/contracts/token/ERC721/ERC721.sol\";\r\n\r\nimport \"@openzeppelin/contracts/token/ERC721/extensions/ERC721URIStorage.sol\";\r\n// keeps track of the number of tokens issued\r\nimport \"@openzeppelin/contracts/utils/Counters.sol\";\r\nimport \"@openzeppelin/contracts/access/Ownable.sol\";\r\n\r\n// Accessing the Ownable method ensures that only the creator of the smart contract can interact with it\r\ncontract BasicNFT is ERC721URIStorage, Ownable   {\r\n    using Counters for Counters.Counter;\r\n    Counters.Counter private _tokenIds;\r\n\r\n    // the name and symbol for the NFT\r\n    constructor() public ERC721(\"TheOsunRiver\", \"TOR\") {}\r\n\r\n    // Create a function to mint/create the NFT\r\n   // receiver takes a type of address. This is the wallet address of the user that should receive the NFT minted using the smart contract\r\n    // tokenURI takes a string that contains metadata about the NFT\r\n\r\n    function createNFT(address receiver, string memory tokenURI)\r\n        public onlyOwner\r\n        returns (uint256)\r\n    {\r\n        _tokenIds.increment();\r\n\r\n        uint256 newItemId = _tokenIds.current();\r\n        _mint(receiver, newItemId);\r\n        //_token(newItemId, tokenURI);\r\n        _setTokenURI(newItemId, tokenURI);\r\n\r\n        // returns the id for the newly created token\r\n        return newItemId;\r\n    }\r\n}\r\n",
  "sourcePath": "D:\\Jason Howse\\Documents\\College\\Masters Classes\\CSC478 - Software Engineering Capstone\\Group Project Information and Assignments\\Front End\\WPF Front End\\iNFT\\contracts\\BasicNFT.sol",
  "compiler": {
    "name": "solc",
    "version": "0.8.10+commit.fc410830.Emscripten.clang"
  },
  "schemaVersion": "3.4.3",
  "updatedAt": "2021-11-20T17:41:10.908Z",
  "devdoc": {
    "kind": "dev",
    "methods": {
      "approve(address,uint256)": {
        "details": "See {IERC721-approve}."
      },
      "balanceOf(address)": {
        "details": "See {IERC721-balanceOf}."
      },
      "getApproved(uint256)": {
        "details": "See {IERC721-getApproved}."
      },
      "isApprovedForAll(address,address)": {
        "details": "See {IERC721-isApprovedForAll}."
      },
      "name()": {
        "details": "See {IERC721Metadata-name}."
      },
      "owner()": {
        "details": "Returns the address of the current owner."
      },
      "ownerOf(uint256)": {
        "details": "See {IERC721-ownerOf}."
      },
      "renounceOwnership()": {
        "details": "Leaves the contract without owner. It will not be possible to call `onlyOwner` functions anymore. Can only be called by the current owner. NOTE: Renouncing ownership will leave the contract without an owner, thereby removing any functionality that is only available to the owner."
      },
      "safeTransferFrom(address,address,uint256)": {
        "details": "See {IERC721-safeTransferFrom}."
      },
      "safeTransferFrom(address,address,uint256,bytes)": {
        "details": "See {IERC721-safeTransferFrom}."
      },
      "setApprovalForAll(address,bool)": {
        "details": "See {IERC721-setApprovalForAll}."
      },
      "supportsInterface(bytes4)": {
        "details": "See {IERC165-supportsInterface}."
      },
      "symbol()": {
        "details": "See {IERC721Metadata-symbol}."
      },
      "tokenURI(uint256)": {
        "details": "See {IERC721Metadata-tokenURI}."
      },
      "transferFrom(address,address,uint256)": {
        "details": "See {IERC721-transferFrom}."
      },
      "transferOwnership(address)": {
        "details": "Transfers ownership of the contract to a new account (`newOwner`). Can only be called by the current owner."
      }
    },
    "version": 1
  },
  "userdoc": {
    "kind": "user",
    "methods": {},
    "version": 1
  }
}