{
  "contractName": "GameItem",
  "abi": [
    {
      "inputs": [],
      "stateMutability": "nonpayable",
      "type": "constructor"
    },
    {
      "anonymous": false,
      "inputs": [
        {
          "indexed": true,
          "internalType": "address",
          "name": "owner",
          "type": "address"
        },
        {
          "indexed": true,
          "internalType": "address",
          "name": "approved",
          "type": "address"
        },
        {
          "indexed": true,
          "internalType": "uint256",
          "name": "tokenId",
          "type": "uint256"
        }
      ],
      "name": "Approval",
      "type": "event"
    },
    {
      "anonymous": false,
      "inputs": [
        {
          "indexed": true,
          "internalType": "address",
          "name": "owner",
          "type": "address"
        },
        {
          "indexed": true,
          "internalType": "address",
          "name": "operator",
          "type": "address"
        },
        {
          "indexed": false,
          "internalType": "bool",
          "name": "approved",
          "type": "bool"
        }
      ],
      "name": "ApprovalForAll",
      "type": "event"
    },
    {
      "anonymous": false,
      "inputs": [
        {
          "indexed": true,
          "internalType": "address",
          "name": "from",
          "type": "address"
        },
        {
          "indexed": true,
          "internalType": "address",
          "name": "to",
          "type": "address"
        },
        {
          "indexed": true,
          "internalType": "uint256",
          "name": "tokenId",
          "type": "uint256"
        }
      ],
      "name": "Transfer",
      "type": "event"
    },
    {
      "inputs": [
        {
          "internalType": "address",
          "name": "to",
          "type": "address"
        },
        {
          "internalType": "uint256",
          "name": "tokenId",
          "type": "uint256"
        }
      ],
      "name": "approve",
      "outputs": [],
      "stateMutability": "nonpayable",
      "type": "function"
    },
    {
      "inputs": [
        {
          "internalType": "address",
          "name": "owner",
          "type": "address"
        }
      ],
      "name": "balanceOf",
      "outputs": [
        {
          "internalType": "uint256",
          "name": "",
          "type": "uint256"
        }
      ],
      "stateMutability": "view",
      "type": "function"
    },
    {
      "inputs": [
        {
          "internalType": "uint256",
          "name": "tokenId",
          "type": "uint256"
        }
      ],
      "name": "getApproved",
      "outputs": [
        {
          "internalType": "address",
          "name": "",
          "type": "address"
        }
      ],
      "stateMutability": "view",
      "type": "function"
    },
    {
      "inputs": [
        {
          "internalType": "address",
          "name": "owner",
          "type": "address"
        },
        {
          "internalType": "address",
          "name": "operator",
          "type": "address"
        }
      ],
      "name": "isApprovedForAll",
      "outputs": [
        {
          "internalType": "bool",
          "name": "",
          "type": "bool"
        }
      ],
      "stateMutability": "view",
      "type": "function"
    },
    {
      "inputs": [],
      "name": "name",
      "outputs": [
        {
          "internalType": "string",
          "name": "",
          "type": "string"
        }
      ],
      "stateMutability": "view",
      "type": "function"
    },
    {
      "inputs": [
        {
          "internalType": "uint256",
          "name": "tokenId",
          "type": "uint256"
        }
      ],
      "name": "ownerOf",
      "outputs": [
        {
          "internalType": "address",
          "name": "",
          "type": "address"
        }
      ],
      "stateMutability": "view",
      "type": "function"
    },
    {
      "inputs": [
        {
          "internalType": "address",
          "name": "from",
          "type": "address"
        },
        {
          "internalType": "address",
          "name": "to",
          "type": "address"
        },
        {
          "internalType": "uint256",
          "name": "tokenId",
          "type": "uint256"
        }
      ],
      "name": "safeTransferFrom",
      "outputs": [],
      "stateMutability": "nonpayable",
      "type": "function"
    },
    {
      "inputs": [
        {
          "internalType": "address",
          "name": "from",
          "type": "address"
        },
        {
          "internalType": "address",
          "name": "to",
          "type": "address"
        },
        {
          "internalType": "uint256",
          "name": "tokenId",
          "type": "uint256"
        },
        {
          "internalType": "bytes",
          "name": "_data",
          "type": "bytes"
        }
      ],
      "name": "safeTransferFrom",
      "outputs": [],
      "stateMutability": "nonpayable",
      "type": "function"
    },
    {
      "inputs": [
        {
          "internalType": "address",
          "name": "operator",
          "type": "address"
        },
        {
          "internalType": "bool",
          "name": "approved",
          "type": "bool"
        }
      ],
      "name": "setApprovalForAll",
      "outputs": [],
      "stateMutability": "nonpayable",
      "type": "function"
    },
    {
      "inputs": [
        {
          "internalType": "bytes4",
          "name": "interfaceId",
          "type": "bytes4"
        }
      ],
      "name": "supportsInterface",
      "outputs": [
        {
          "internalType": "bool",
          "name": "",
          "type": "bool"
        }
      ],
      "stateMutability": "view",
      "type": "function"
    },
    {
      "inputs": [],
      "name": "symbol",
      "outputs": [
        {
          "internalType": "string",
          "name": "",
          "type": "string"
        }
      ],
      "stateMutability": "view",
      "type": "function"
    },
    {
      "inputs": [
        {
          "internalType": "uint256",
          "name": "tokenId",
          "type": "uint256"
        }
      ],
      "name": "tokenURI",
      "outputs": [
        {
          "internalType": "string",
          "name": "",
          "type": "string"
        }
      ],
      "stateMutability": "view",
      "type": "function"
    },
    {
      "inputs": [
        {
          "internalType": "address",
          "name": "from",
          "type": "address"
        },
        {
          "internalType": "address",
          "name": "to",
          "type": "address"
        },
        {
          "internalType": "uint256",
          "name": "tokenId",
          "type": "uint256"
        }
      ],
      "name": "transferFrom",
      "outputs": [],
      "stateMutability": "nonpayable",
      "type": "function"
    },
    {
      "inputs": [
        {
          "internalType": "address",
          "name": "player",
          "type": "address"
        },
        {
          "internalType": "string",
          "name": "tokenURI",
          "type": "string"
        }
      ],
      "name": "awardItem",
      "outputs": [
        {
          "internalType": "uint256",
          "name": "",
          "type": "uint256"
        }
      ],
      "stateMutability": "nonpayable",
      "type": "function"
    }
  ],
  "bytecode": "0x60806040523480156200001157600080fd5b50604080518082018252600881526747616d654974656d60c01b60208083019182528351808501909452600384526249544d60e81b9084015281519192916200005d916000916200007c565b508051620000739060019060208401906200007c565b5050506200015f565b8280546200008a9062000122565b90600052602060002090601f016020900481019282620000ae5760008555620000f9565b82601f10620000c957805160ff1916838001178555620000f9565b82800160010185558215620000f9579182015b82811115620000f9578251825591602001919060010190620000dc565b50620001079291506200010b565b5090565b5b808211156200010757600081556001016200010c565b600181811c908216806200013757607f821691505b602082108114156200015957634e487b7160e01b600052602260045260246000fd5b50919050565b6116d1806200016f6000396000f3fe608060405234801561001057600080fd5b50600436106100ea5760003560e01c806370a082311161008c578063b88d4fde11610066578063b88d4fde146101e1578063c87b56dd146101f4578063cf37834314610207578063e985e9c51461021a57600080fd5b806370a08231146101a557806395d89b41146101c6578063a22cb465146101ce57600080fd5b8063095ea7b3116100c8578063095ea7b31461015757806323b872dd1461016c57806342842e0e1461017f5780636352211e1461019257600080fd5b806301ffc9a7146100ef57806306fdde0314610117578063081812fc1461012c575b600080fd5b6101026100fd366004611169565b610256565b60405190151581526020015b60405180910390f35b61011f6102a8565b60405161010e91906111de565b61013f61013a3660046111f1565b61033a565b6040516001600160a01b03909116815260200161010e565b61016a610165366004611226565b6103c7565b005b61016a61017a366004611250565b6104dd565b61016a61018d366004611250565b61050e565b61013f6101a03660046111f1565b610529565b6101b86101b336600461128c565b6105a0565b60405190815260200161010e565b61011f610627565b61016a6101dc3660046112a7565b610636565b61016a6101ef36600461136f565b6106fb565b61011f6102023660046111f1565b610733565b6101b86102153660046113eb565b6108aa565b61010261022836600461144d565b6001600160a01b03918216600090815260056020908152604080832093909416825291909152205460ff1690565b60006001600160e01b031982166380ac58cd60e01b148061028757506001600160e01b03198216635b5e139f60e01b145b806102a257506301ffc9a760e01b6001600160e01b03198316145b92915050565b6060600080546102b790611480565b80601f01602080910402602001604051908101604052809291908181526020018280546102e390611480565b80156103305780601f1061030557610100808354040283529160200191610330565b820191906000526020600020905b81548152906001019060200180831161031357829003601f168201915b5050505050905090565b6000610345826108e2565b6103ab5760405162461bcd60e51b815260206004820152602c60248201527f4552433732313a20617070726f76656420717565727920666f72206e6f6e657860448201526b34b9ba32b73a103a37b5b2b760a11b60648201526084015b60405180910390fd5b506000908152600460205260409020546001600160a01b031690565b60006103d282610529565b9050806001600160a01b0316836001600160a01b031614156104405760405162461bcd60e51b815260206004820152602160248201527f4552433732313a20617070726f76616c20746f2063757272656e74206f776e656044820152603960f91b60648201526084016103a2565b336001600160a01b038216148061045c575061045c8133610228565b6104ce5760405162461bcd60e51b815260206004820152603860248201527f4552433732313a20617070726f76652063616c6c6572206973206e6f74206f7760448201527f6e6572206e6f7220617070726f76656420666f7220616c6c000000000000000060648201526084016103a2565b6104d883836108ff565b505050565b6104e7338261096d565b6105035760405162461bcd60e51b81526004016103a2906114bb565b6104d8838383610a53565b6104d8838383604051806020016040528060008152506106fb565b6000818152600260205260408120546001600160a01b0316806102a25760405162461bcd60e51b815260206004820152602960248201527f4552433732313a206f776e657220717565727920666f72206e6f6e657869737460448201526832b73a103a37b5b2b760b91b60648201526084016103a2565b60006001600160a01b03821661060b5760405162461bcd60e51b815260206004820152602a60248201527f4552433732313a2062616c616e636520717565727920666f7220746865207a65604482015269726f206164647265737360b01b60648201526084016103a2565b506001600160a01b031660009081526003602052604090205490565b6060600180546102b790611480565b6001600160a01b03821633141561068f5760405162461bcd60e51b815260206004820152601960248201527f4552433732313a20617070726f766520746f2063616c6c65720000000000000060448201526064016103a2565b3360008181526005602090815260408083206001600160a01b03871680855290835292819020805460ff191686151590811790915590519081529192917f17307eab39ab6107e8899845ad3d59bd9653f200f220920489ca2b5937696c31910160405180910390a35050565b610705338361096d565b6107215760405162461bcd60e51b81526004016103a2906114bb565b61072d84848484610bf3565b50505050565b606061073e826108e2565b6107a45760405162461bcd60e51b815260206004820152603160248201527f45524337323155524953746f726167653a2055524920717565727920666f72206044820152703737b732bc34b9ba32b73a103a37b5b2b760791b60648201526084016103a2565b600082815260066020526040812080546107bd90611480565b80601f01602080910402602001604051908101604052809291908181526020018280546107e990611480565b80156108365780601f1061080b57610100808354040283529160200191610836565b820191906000526020600020905b81548152906001019060200180831161081957829003601f168201915b50505050509050600061085460408051602081019091526000815290565b9050805160001415610867575092915050565b81511561089957808260405160200161088192919061150c565b60405160208183030381529060405292505050919050565b6108a284610c26565b949350505050565b60006108ba600780546001019055565b60006108c560075490565b90506108d18482610cfd565b6108db8184610e30565b9392505050565b6000908152600260205260409020546001600160a01b0316151590565b600081815260046020526040902080546001600160a01b0319166001600160a01b038416908117909155819061093482610529565b6001600160a01b03167f8c5be1e5ebec7d5bd14f71427d1e84f3dd0314c0f7b2291e5b200ac8c7c3b92560405160405180910390a45050565b6000610978826108e2565b6109d95760405162461bcd60e51b815260206004820152602c60248201527f4552433732313a206f70657261746f7220717565727920666f72206e6f6e657860448201526b34b9ba32b73a103a37b5b2b760a11b60648201526084016103a2565b60006109e483610529565b9050806001600160a01b0316846001600160a01b03161480610a1f5750836001600160a01b0316610a148461033a565b6001600160a01b0316145b806108a257506001600160a01b0380821660009081526005602090815260408083209388168352929052205460ff166108a2565b826001600160a01b0316610a6682610529565b6001600160a01b031614610ace5760405162461bcd60e51b815260206004820152602960248201527f4552433732313a207472616e73666572206f6620746f6b656e2074686174206960448201526839903737ba1037bbb760b91b60648201526084016103a2565b6001600160a01b038216610b305760405162461bcd60e51b8152602060048201526024808201527f4552433732313a207472616e7366657220746f20746865207a65726f206164646044820152637265737360e01b60648201526084016103a2565b610b3b6000826108ff565b6001600160a01b0383166000908152600360205260408120805460019290610b64908490611551565b90915550506001600160a01b0382166000908152600360205260408120805460019290610b92908490611568565b909155505060008181526002602052604080822080546001600160a01b0319166001600160a01b0386811691821790925591518493918716917fddf252ad1be2c89b69c2b068fc378daa952ba7f163c4a11628f55a4df523b3ef91a4505050565b610bfe848484610a53565b610c0a84848484610ebb565b61072d5760405162461bcd60e51b81526004016103a290611580565b6060610c31826108e2565b610c955760405162461bcd60e51b815260206004820152602f60248201527f4552433732314d657461646174613a2055524920717565727920666f72206e6f60448201526e3732bc34b9ba32b73a103a37b5b2b760891b60648201526084016103a2565b6000610cac60408051602081019091526000815290565b90506000815111610ccc57604051806020016040528060008152506108db565b80610cd684610fb9565b604051602001610ce792919061150c565b6040516020818303038152906040529392505050565b6001600160a01b038216610d535760405162461bcd60e51b815260206004820181905260248201527f4552433732313a206d696e7420746f20746865207a65726f206164647265737360448201526064016103a2565b610d5c816108e2565b15610da95760405162461bcd60e51b815260206004820152601c60248201527f4552433732313a20746f6b656e20616c7265616479206d696e7465640000000060448201526064016103a2565b6001600160a01b0382166000908152600360205260408120805460019290610dd2908490611568565b909155505060008181526002602052604080822080546001600160a01b0319166001600160a01b03861690811790915590518392907fddf252ad1be2c89b69c2b068fc378daa952ba7f163c4a11628f55a4df523b3ef908290a45050565b610e39826108e2565b610e9c5760405162461bcd60e51b815260206004820152602e60248201527f45524337323155524953746f726167653a2055524920736574206f66206e6f6e60448201526d32bc34b9ba32b73a103a37b5b2b760911b60648201526084016103a2565b600082815260066020908152604090912082516104d8928401906110b7565b60006001600160a01b0384163b15610fae57604051630a85bd0160e11b81526001600160a01b0385169063150b7a0290610eff9033908990889088906004016115d2565b6020604051808303816000875af1925050508015610f3a575060408051601f3d908101601f19168201909252610f379181019061160f565b60015b610f94573d808015610f68576040519150601f19603f3d011682016040523d82523d6000602084013e610f6d565b606091505b508051610f8c5760405162461bcd60e51b81526004016103a290611580565b805181602001fd5b6001600160e01b031916630a85bd0160e11b1490506108a2565b506001949350505050565b606081610fdd5750506040805180820190915260018152600360fc1b602082015290565b8160005b81156110075780610ff18161162c565b91506110009050600a8361165d565b9150610fe1565b60008167ffffffffffffffff811115611022576110226112e3565b6040519080825280601f01601f19166020018201604052801561104c576020820181803683370190505b5090505b84156108a257611061600183611551565b915061106e600a86611671565b611079906030611568565b60f81b81838151811061108e5761108e611685565b60200101906001600160f81b031916908160001a9053506110b0600a8661165d565b9450611050565b8280546110c390611480565b90600052602060002090601f0160209004810192826110e5576000855561112b565b82601f106110fe57805160ff191683800117855561112b565b8280016001018555821561112b579182015b8281111561112b578251825591602001919060010190611110565b5061113792915061113b565b5090565b5b80821115611137576000815560010161113c565b6001600160e01b03198116811461116657600080fd5b50565b60006020828403121561117b57600080fd5b81356108db81611150565b60005b838110156111a1578181015183820152602001611189565b8381111561072d5750506000910152565b600081518084526111ca816020860160208601611186565b601f01601f19169290920160200192915050565b6020815260006108db60208301846111b2565b60006020828403121561120357600080fd5b5035919050565b80356001600160a01b038116811461122157600080fd5b919050565b6000806040838503121561123957600080fd5b6112428361120a565b946020939093013593505050565b60008060006060848603121561126557600080fd5b61126e8461120a565b925061127c6020850161120a565b9150604084013590509250925092565b60006020828403121561129e57600080fd5b6108db8261120a565b600080604083850312156112ba57600080fd5b6112c38361120a565b9150602083013580151581146112d857600080fd5b809150509250929050565b634e487b7160e01b600052604160045260246000fd5b600067ffffffffffffffff80841115611314576113146112e3565b604051601f8501601f19908116603f0116810190828211818310171561133c5761133c6112e3565b8160405280935085815286868601111561135557600080fd5b858560208301376000602087830101525050509392505050565b6000806000806080858703121561138557600080fd5b61138e8561120a565b935061139c6020860161120a565b925060408501359150606085013567ffffffffffffffff8111156113bf57600080fd5b8501601f810187136113d057600080fd5b6113df878235602084016112f9565b91505092959194509250565b600080604083850312156113fe57600080fd5b6114078361120a565b9150602083013567ffffffffffffffff81111561142357600080fd5b8301601f8101851361143457600080fd5b611443858235602084016112f9565b9150509250929050565b6000806040838503121561146057600080fd5b6114698361120a565b91506114776020840161120a565b90509250929050565b600181811c9082168061149457607f821691505b602082108114156114b557634e487b7160e01b600052602260045260246000fd5b50919050565b60208082526031908201527f4552433732313a207472616e736665722063616c6c6572206973206e6f74206f6040820152701ddb995c881b9bdc88185c1c1c9bdd9959607a1b606082015260800190565b6000835161151e818460208801611186565b835190830190611532818360208801611186565b01949350505050565b634e487b7160e01b600052601160045260246000fd5b6000828210156115635761156361153b565b500390565b6000821982111561157b5761157b61153b565b500190565b60208082526032908201527f4552433732313a207472616e7366657220746f206e6f6e20455243373231526560408201527131b2b4bb32b91034b6b83632b6b2b73a32b960711b606082015260800190565b6001600160a01b0385811682528416602082015260408101839052608060608201819052600090611605908301846111b2565b9695505050505050565b60006020828403121561162157600080fd5b81516108db81611150565b60006000198214156116405761164061153b565b5060010190565b634e487b7160e01b600052601260045260246000fd5b60008261166c5761166c611647565b500490565b60008261168057611680611647565b500690565b634e487b7160e01b600052603260045260246000fdfea2646970667358221220711371629d20a5291b39cc80de1863c634e01308c9ebf9925a0fb19a63234a7764736f6c634300080a0033",
  "immutableReferences": {},
  "source": "// contracts/GameItem.sol\r\n// SPDX-License-Identifier: MIT\r\npragma solidity ^0.8.0;\r\n\r\nimport \"@openzeppelin/contracts/token/ERC721/extensions/ERC721URIStorage.sol\";\r\nimport \"@openzeppelin/contracts/utils/Counters.sol\";\r\n\r\ncontract GameItem is ERC721URIStorage {\r\n    using Counters for Counters.Counter;\r\n    Counters.Counter private _tokenIds;\r\n\r\n    constructor() ERC721(\"GameItem\", \"ITM\") {}\r\n\r\n    function awardItem(address player, string memory tokenURI)\r\n        public\r\n        returns (uint256)\r\n    {\r\n        _tokenIds.increment();\r\n\r\n        uint256 newItemId = _tokenIds.current();\r\n        _mint(player, newItemId);\r\n        _setTokenURI(newItemId, tokenURI);\r\n\r\n        return newItemId;\r\n    }\r\n}\r\n",
  "sourcePath": "D:\\Jason Howse\\Documents\\College\\Masters Classes\\CSC478 - Software Engineering Capstone\\Group Project Information and Assignments\\Front End\\WPF Front End\\iNFT\\contracts\\TestNFTContract.sol",
  "compiler": {
    "name": "solc",
    "version": "0.8.10+commit.fc410830.Emscripten.clang"
  },
  "schemaVersion": "3.4.3",
  "updatedAt": "2021-11-20T17:41:10.922Z",
  "devdoc": {
    "kind": "dev",
    "methods": {
      "approve(address,uint256)": {
        "details": "See {IERC721-approve}."
      },
      "balanceOf(address)": {
        "details": "See {IERC721-balanceOf}."
      },
      "getApproved(uint256)": {
        "details": "See {IERC721-getApproved}."
      },
      "isApprovedForAll(address,address)": {
        "details": "See {IERC721-isApprovedForAll}."
      },
      "name()": {
        "details": "See {IERC721Metadata-name}."
      },
      "ownerOf(uint256)": {
        "details": "See {IERC721-ownerOf}."
      },
      "safeTransferFrom(address,address,uint256)": {
        "details": "See {IERC721-safeTransferFrom}."
      },
      "safeTransferFrom(address,address,uint256,bytes)": {
        "details": "See {IERC721-safeTransferFrom}."
      },
      "setApprovalForAll(address,bool)": {
        "details": "See {IERC721-setApprovalForAll}."
      },
      "supportsInterface(bytes4)": {
        "details": "See {IERC165-supportsInterface}."
      },
      "symbol()": {
        "details": "See {IERC721Metadata-symbol}."
      },
      "tokenURI(uint256)": {
        "details": "See {IERC721Metadata-tokenURI}."
      },
      "transferFrom(address,address,uint256)": {
        "details": "See {IERC721-transferFrom}."
      }
    },
    "version": 1
  },
  "userdoc": {
    "kind": "user",
    "methods": {},
    "version": 1
  }
}